{
  "_format": "hh-sol-artifact-1",
  "contractName": "EarlySongsPlatform",
  "sourceName": "contracts/EarlySongsPlatform.sol",
  "abi": [
    {
      "inputs": [],
      "stateMutability": "nonpayable",
      "type": "constructor"
    },
    {
      "anonymous": false,
      "inputs": [
        {
          "indexed": true,
          "internalType": "uint256",
          "name": "itemId",
          "type": "uint256"
        },
        {
          "indexed": true,
          "internalType": "address",
          "name": "nftContract",
          "type": "address"
        },
        {
          "indexed": false,
          "internalType": "address",
          "name": "artist",
          "type": "address"
        },
        {
          "indexed": false,
          "internalType": "uint256",
          "name": "mintPrice",
          "type": "uint256"
        }
      ],
      "name": "PlatformItemCreated",
      "type": "event"
    },
    {
      "inputs": [
        {
          "internalType": "address",
          "name": "nftContract",
          "type": "address"
        },
        {
          "internalType": "uint256",
          "name": "mintPrice",
          "type": "uint256"
        }
      ],
      "name": "createPlatformItem",
      "outputs": [],
      "stateMutability": "payable",
      "type": "function"
    },
    {
      "inputs": [],
      "name": "fetchPlatformItems",
      "outputs": [
        {
          "components": [
            {
              "internalType": "uint256",
              "name": "itemId",
              "type": "uint256"
            },
            {
              "internalType": "address",
              "name": "nftContract",
              "type": "address"
            },
            {
              "internalType": "address payable",
              "name": "artist",
              "type": "address"
            },
            {
              "internalType": "uint256",
              "name": "mintPrice",
              "type": "uint256"
            }
          ],
          "internalType": "struct EarlySongsPlatform.PlatformItem[]",
          "name": "",
          "type": "tuple[]"
        }
      ],
      "stateMutability": "view",
      "type": "function"
    },
    {
      "inputs": [
        {
          "internalType": "uint256",
          "name": "itemId",
          "type": "uint256"
        }
      ],
      "name": "fetchSingleItem",
      "outputs": [
        {
          "components": [
            {
              "internalType": "uint256",
              "name": "itemId",
              "type": "uint256"
            },
            {
              "internalType": "address",
              "name": "nftContract",
              "type": "address"
            },
            {
              "internalType": "address payable",
              "name": "artist",
              "type": "address"
            },
            {
              "internalType": "uint256",
              "name": "mintPrice",
              "type": "uint256"
            }
          ],
          "internalType": "struct EarlySongsPlatform.PlatformItem",
          "name": "",
          "type": "tuple"
        }
      ],
      "stateMutability": "view",
      "type": "function"
    },
    {
      "inputs": [],
      "name": "getListingPrice",
      "outputs": [
        {
          "internalType": "uint256",
          "name": "",
          "type": "uint256"
        }
      ],
      "stateMutability": "view",
      "type": "function"
    },
    {
      "inputs": [
        {
          "internalType": "uint256",
          "name": "itemId",
          "type": "uint256"
        }
      ],
      "name": "mintNewNFT",
      "outputs": [
        {
          "internalType": "uint256",
          "name": "",
          "type": "uint256"
        }
      ],
      "stateMutability": "payable",
      "type": "function"
    }
  ],
  "bytecode": "0x608060405266038d7ea4c6800060035534801561001b57600080fd5b506001600055600280546001600160a01b031916331790556106e9806100426000396000f3fe60806040526004361061004a5760003560e01c806312e855851461004f5780638d145749146100735780639b270da814610088578063a2bf932a1461009b578063ab1e9198146100c8575b600080fd5b34801561005b57600080fd5b506003545b6040519081526020015b60405180910390f35b610086610081366004610520565b6100ea565b005b610060610096366004610558565b61022c565b3480156100a757600080fd5b506100bb6100b6366004610558565b61031d565b60405161006a9190610571565b3480156100d457600080fd5b506100dd610378565b60405161006a91906105af565b6100f261048d565b60035434146101545760405162461bcd60e51b8152602060048201526024808201527f5072696365206d75737420626520657175616c20746f206c697374696e6720706044820152637269636560e01b60648201526084015b60405180910390fd5b610162600180546001019055565b600061016d60015490565b604080516080810182528281526001600160a01b03868116602080840182815233858701818152606087018b815260008a8152600486528990209751885592516001880180549188166001600160a01b03199283161790559051600288018054919097169116179094555160039094019390935583519182529181018690529293509183917feb14842d7f333272863890da76482202789b72ca2972ba79d213464b1e7966ad910160405180910390a3506102286001600055565b5050565b600061023661048d565b6000828152600460205260408082206003810154600290910154915190926001600160a01b039092169183156108fc02918491818181858888f19350505050158015610286573d6000803e3d6000fd5b5060008381526004602081905260408083206001015490516335313c2160e11b815233928101929092526001600160a01b031691908290636a627842906024016020604051808303816000875af11580156102e5573d6000803e3d6000fd5b505050506040513d601f19601f82011682018060405250810190610309919061062c565b93505050506103186001600055565b919050565b6103256104e6565b5060009081526004602090815260409182902082516080810184528154815260018201546001600160a01b0390811693820193909352600282015490921692820192909252600390910154606082015290565b6060600061038560015490565b90506000808267ffffffffffffffff8111156103a3576103a3610645565b6040519080825280602002602001820160405280156103dc57816020015b6103c96104e6565b8152602001906001900390816103c15790505b50905060005b8381101561048557600460006103f9836001610671565b8152602080820192909252604090810160002081516080810183528154815260018201546001600160a01b0390811694820194909452600282015490931691830191909152600301546060820152825183908590811061045b5761045b610684565b6020908102919091010152610471600184610671565b92508061047d8161069a565b9150506103e2565b509392505050565b6002600054036104df5760405162461bcd60e51b815260206004820152601f60248201527f5265656e7472616e637947756172643a207265656e7472616e742063616c6c00604482015260640161014b565b6002600055565b60405180608001604052806000815260200160006001600160a01b0316815260200160006001600160a01b03168152602001600081525090565b6000806040838503121561053357600080fd5b82356001600160a01b038116811461054a57600080fd5b946020939093013593505050565b60006020828403121561056a57600080fd5b5035919050565b815181526020808301516001600160a01b03908116918301919091526040808401519091169082015260608083015190820152608081015b92915050565b6020808252825182820181905260009190848201906040850190845b818110156106205761060d838551805182526020808201516001600160a01b039081169184019190915260408083015190911690830152606090810151910152565b92840192608092909201916001016105cb565b50909695505050505050565b60006020828403121561063e57600080fd5b5051919050565b634e487b7160e01b600052604160045260246000fd5b634e487b7160e01b600052601160045260246000fd5b808201808211156105a9576105a961065b565b634e487b7160e01b600052603260045260246000fd5b6000600182016106ac576106ac61065b565b506001019056fea2646970667358221220073b6499fc137fcd7363abaffe29bfa3e232c179ec051f7b04493228eaf30f8264736f6c63430008110033",
  "linkReferences": {},
  "deployedLinkReferences": {}
}