{
  "_format": "hh-sol-artifact-1",
  "contractName": "ShareableSong",
  "sourceName": "contracts/ShareableSong.sol",
  "abi": [
    {
      "inputs": [
        {
          "internalType": "string",
          "name": "metadata_",
          "type": "string"
        },
        {
          "internalType": "uint256",
          "name": "_timestamp",
          "type": "uint256"
        },
        {
          "internalType": "uint256",
          "name": "_maxSupply",
          "type": "uint256"
        },
        {
          "internalType": "address",
          "name": "_platformAddress",
          "type": "address"
        }
      ],
      "stateMutability": "nonpayable",
      "type": "constructor"
    },
    {
      "anonymous": false,
      "inputs": [
        {
          "indexed": true,
          "internalType": "address",
          "name": "owner",
          "type": "address"
        },
        {
          "indexed": true,
          "internalType": "address",
          "name": "approved",
          "type": "address"
        },
        {
          "indexed": true,
          "internalType": "uint256",
          "name": "tokenId",
          "type": "uint256"
        }
      ],
      "name": "Approval",
      "type": "event"
    },
    {
      "anonymous": false,
      "inputs": [
        {
          "indexed": true,
          "internalType": "address",
          "name": "owner",
          "type": "address"
        },
        {
          "indexed": true,
          "internalType": "address",
          "name": "operator",
          "type": "address"
        },
        {
          "indexed": false,
          "internalType": "bool",
          "name": "approved",
          "type": "bool"
        }
      ],
      "name": "ApprovalForAll",
      "type": "event"
    },
    {
      "anonymous": false,
      "inputs": [
        {
          "indexed": true,
          "internalType": "address",
          "name": "previousOwner",
          "type": "address"
        },
        {
          "indexed": true,
          "internalType": "address",
          "name": "newOwner",
          "type": "address"
        }
      ],
      "name": "OwnershipTransferred",
      "type": "event"
    },
    {
      "anonymous": false,
      "inputs": [
        {
          "indexed": true,
          "internalType": "address",
          "name": "from",
          "type": "address"
        },
        {
          "indexed": true,
          "internalType": "address",
          "name": "to",
          "type": "address"
        },
        {
          "indexed": true,
          "internalType": "uint256",
          "name": "tokenId",
          "type": "uint256"
        },
        {
          "indexed": false,
          "internalType": "uint256",
          "name": "derivedFromtokenId",
          "type": "uint256"
        }
      ],
      "name": "Share",
      "type": "event"
    },
    {
      "anonymous": false,
      "inputs": [
        {
          "indexed": true,
          "internalType": "address",
          "name": "from",
          "type": "address"
        },
        {
          "indexed": true,
          "internalType": "address",
          "name": "to",
          "type": "address"
        },
        {
          "indexed": true,
          "internalType": "uint256",
          "name": "tokenId",
          "type": "uint256"
        }
      ],
      "name": "Transfer",
      "type": "event"
    },
    {
      "inputs": [
        {
          "internalType": "address",
          "name": "to",
          "type": "address"
        },
        {
          "internalType": "uint256",
          "name": "tokenId",
          "type": "uint256"
        }
      ],
      "name": "approve",
      "outputs": [],
      "stateMutability": "nonpayable",
      "type": "function"
    },
    {
      "inputs": [
        {
          "internalType": "address",
          "name": "owner",
          "type": "address"
        }
      ],
      "name": "balanceOf",
      "outputs": [
        {
          "internalType": "uint256",
          "name": "",
          "type": "uint256"
        }
      ],
      "stateMutability": "view",
      "type": "function"
    },
    {
      "inputs": [
        {
          "internalType": "uint256",
          "name": "tokenId",
          "type": "uint256"
        }
      ],
      "name": "getApproved",
      "outputs": [
        {
          "internalType": "address",
          "name": "",
          "type": "address"
        }
      ],
      "stateMutability": "view",
      "type": "function"
    },
    {
      "inputs": [],
      "name": "getBlockTimestamp",
      "outputs": [
        {
          "internalType": "uint256",
          "name": "",
          "type": "uint256"
        }
      ],
      "stateMutability": "view",
      "type": "function"
    },
    {
      "inputs": [],
      "name": "getCurrentTokenId",
      "outputs": [
        {
          "internalType": "uint256",
          "name": "",
          "type": "uint256"
        }
      ],
      "stateMutability": "view",
      "type": "function"
    },
    {
      "inputs": [],
      "name": "getMaxSupply",
      "outputs": [
        {
          "internalType": "uint256",
          "name": "",
          "type": "uint256"
        }
      ],
      "stateMutability": "view",
      "type": "function"
    },
    {
      "inputs": [],
      "name": "getMetadata",
      "outputs": [
        {
          "internalType": "string",
          "name": "",
          "type": "string"
        }
      ],
      "stateMutability": "view",
      "type": "function"
    },
    {
      "inputs": [
        {
          "internalType": "address",
          "name": "owner",
          "type": "address"
        },
        {
          "internalType": "address",
          "name": "operator",
          "type": "address"
        }
      ],
      "name": "isApprovedForAll",
      "outputs": [
        {
          "internalType": "bool",
          "name": "",
          "type": "bool"
        }
      ],
      "stateMutability": "view",
      "type": "function"
    },
    {
      "inputs": [],
      "name": "maxSupply",
      "outputs": [
        {
          "internalType": "uint256",
          "name": "",
          "type": "uint256"
        }
      ],
      "stateMutability": "view",
      "type": "function"
    },
    {
      "inputs": [
        {
          "internalType": "address",
          "name": "account",
          "type": "address"
        }
      ],
      "name": "mint",
      "outputs": [
        {
          "internalType": "uint256",
          "name": "",
          "type": "uint256"
        }
      ],
      "stateMutability": "nonpayable",
      "type": "function"
    },
    {
      "inputs": [],
      "name": "name",
      "outputs": [
        {
          "internalType": "string",
          "name": "",
          "type": "string"
        }
      ],
      "stateMutability": "view",
      "type": "function"
    },
    {
      "inputs": [],
      "name": "owner",
      "outputs": [
        {
          "internalType": "address",
          "name": "",
          "type": "address"
        }
      ],
      "stateMutability": "view",
      "type": "function"
    },
    {
      "inputs": [
        {
          "internalType": "uint256",
          "name": "tokenId",
          "type": "uint256"
        }
      ],
      "name": "ownerOf",
      "outputs": [
        {
          "internalType": "address",
          "name": "",
          "type": "address"
        }
      ],
      "stateMutability": "view",
      "type": "function"
    },
    {
      "inputs": [],
      "name": "renounceOwnership",
      "outputs": [],
      "stateMutability": "nonpayable",
      "type": "function"
    },
    {
      "inputs": [
        {
          "internalType": "address",
          "name": "from",
          "type": "address"
        },
        {
          "internalType": "address",
          "name": "to",
          "type": "address"
        },
        {
          "internalType": "uint256",
          "name": "tokenId",
          "type": "uint256"
        }
      ],
      "name": "safeTransferFrom",
      "outputs": [],
      "stateMutability": "nonpayable",
      "type": "function"
    },
    {
      "inputs": [
        {
          "internalType": "address",
          "name": "from",
          "type": "address"
        },
        {
          "internalType": "address",
          "name": "to",
          "type": "address"
        },
        {
          "internalType": "uint256",
          "name": "tokenId",
          "type": "uint256"
        },
        {
          "internalType": "bytes",
          "name": "data",
          "type": "bytes"
        }
      ],
      "name": "safeTransferFrom",
      "outputs": [],
      "stateMutability": "nonpayable",
      "type": "function"
    },
    {
      "inputs": [
        {
          "internalType": "address",
          "name": "operator",
          "type": "address"
        },
        {
          "internalType": "bool",
          "name": "approved",
          "type": "bool"
        }
      ],
      "name": "setApprovalForAll",
      "outputs": [],
      "stateMutability": "nonpayable",
      "type": "function"
    },
    {
      "inputs": [
        {
          "internalType": "uint256",
          "name": "_maxSupply",
          "type": "uint256"
        }
      ],
      "name": "setMaxSupply",
      "outputs": [],
      "stateMutability": "nonpayable",
      "type": "function"
    },
    {
      "inputs": [
        {
          "internalType": "string",
          "name": "metadata_",
          "type": "string"
        }
      ],
      "name": "setMetadata",
      "outputs": [],
      "stateMutability": "nonpayable",
      "type": "function"
    },
    {
      "inputs": [
        {
          "internalType": "uint256",
          "name": "_timestamp",
          "type": "uint256"
        }
      ],
      "name": "setTimestamp",
      "outputs": [],
      "stateMutability": "nonpayable",
      "type": "function"
    },
    {
      "inputs": [
        {
          "internalType": "address",
          "name": "to",
          "type": "address"
        },
        {
          "internalType": "uint256",
          "name": "tokenIdToBeShared",
          "type": "uint256"
        }
      ],
      "name": "share",
      "outputs": [
        {
          "internalType": "uint256",
          "name": "newTokenId",
          "type": "uint256"
        }
      ],
      "stateMutability": "nonpayable",
      "type": "function"
    },
    {
      "inputs": [
        {
          "internalType": "bytes4",
          "name": "interfaceId",
          "type": "bytes4"
        }
      ],
      "name": "supportsInterface",
      "outputs": [
        {
          "internalType": "bool",
          "name": "",
          "type": "bool"
        }
      ],
      "stateMutability": "view",
      "type": "function"
    },
    {
      "inputs": [],
      "name": "symbol",
      "outputs": [
        {
          "internalType": "string",
          "name": "",
          "type": "string"
        }
      ],
      "stateMutability": "view",
      "type": "function"
    },
    {
      "inputs": [
        {
          "internalType": "uint256",
          "name": "tokenId",
          "type": "uint256"
        }
      ],
      "name": "tokenURI",
      "outputs": [
        {
          "internalType": "string",
          "name": "",
          "type": "string"
        }
      ],
      "stateMutability": "view",
      "type": "function"
    },
    {
      "inputs": [
        {
          "internalType": "address",
          "name": "from",
          "type": "address"
        },
        {
          "internalType": "address",
          "name": "to",
          "type": "address"
        },
        {
          "internalType": "uint256",
          "name": "tokenId",
          "type": "uint256"
        }
      ],
      "name": "transferFrom",
      "outputs": [],
      "stateMutability": "nonpayable",
      "type": "function"
    },
    {
      "inputs": [
        {
          "internalType": "address",
          "name": "newOwner",
          "type": "address"
        }
      ],
      "name": "transferOwnership",
      "outputs": [],
      "stateMutability": "nonpayable",
      "type": "function"
    }
  ],
  "bytecode": "0x60806040523480156200001157600080fd5b5060405162001ffc38038062001ffc83398101604081905262000034916200017e565b6040518060400160405280601081526020016f4e65772052656c6561736520536f6e6760801b8152506040518060400160405280600481526020016314d3919560e21b81525081600090816200008b919062000308565b5060016200009a828262000308565b505050620000b7620000b1620000f560201b60201c565b620000f9565b6009620000c5858262000308565b50600b92909255600c55600d80546001600160a01b0319166001600160a01b0390921691909117905550620003d4565b3390565b600780546001600160a01b038381166001600160a01b0319831681179093556040519116919082907f8be0079c531659141344cd1fd0a4f28419497f9722a3daafe3b4186f6b6457e090600090a35050565b634e487b7160e01b600052604160045260246000fd5b80516001600160a01b03811681146200017957600080fd5b919050565b600080600080608085870312156200019557600080fd5b84516001600160401b0380821115620001ad57600080fd5b818701915087601f830112620001c257600080fd5b815181811115620001d757620001d76200014b565b604051601f8201601f19908116603f011681019083821181831017156200020257620002026200014b565b81604052828152602093508a848487010111156200021f57600080fd5b600091505b8282101562000243578482018401518183018501529083019062000224565b60008484830101528098505050508087015194505050604085015191506200026e6060860162000161565b905092959194509250565b600181811c908216806200028e57607f821691505b602082108103620002af57634e487b7160e01b600052602260045260246000fd5b50919050565b601f8211156200030357600081815260208120601f850160051c81016020861015620002de5750805b601f850160051c820191505b81811015620002ff57828155600101620002ea565b5050505b505050565b81516001600160401b038111156200032457620003246200014b565b6200033c8162000335845462000279565b84620002b5565b602080601f8311600181146200037457600084156200035b5750858301515b600019600386901b1c1916600185901b178555620002ff565b600085815260208120601f198616915b82811015620003a55788860151825594840194600190910190840162000384565b5085821015620003c45787850151600019600388901b60f8161c191681555b5050505050600190811b01905550565b611c1880620003e46000396000f3fe608060405234801561001057600080fd5b506004361061018e5760003560e01c8063796b89b9116100de578063a49a1e7d11610097578063d5abeb0111610071578063d5abeb0114610317578063ded6338b14610320578063e985e9c514610333578063f2fde38b1461036f57600080fd5b8063a49a1e7d146102de578063b88d4fde146102f1578063c87b56dd1461030457600080fd5b8063796b89b9146102915780637a5b4f59146102975780638da5cb5b1461029f57806395d89b41146102b0578063a0a2b573146102b8578063a22cb465146102cb57600080fd5b80634c0f38c21161014b5780636a627842116101255780636a627842146102505780636f8b44b01461026357806370a0823114610276578063715018a61461028957600080fd5b80634c0f38c21461022357806356189236146102355780636352211e1461023d57600080fd5b806301ffc9a71461019357806306fdde03146101bb578063081812fc146101d0578063095ea7b3146101fb57806323b872dd1461021057806342842e0e14610210575b600080fd5b6101a66101a1366004611689565b610382565b60405190151581526020015b60405180910390f35b6101c36103d4565b6040516101b291906116f6565b6101e36101de366004611709565b610466565b6040516001600160a01b0390911681526020016101b2565b61020e610209366004611739565b61048d565b005b61020e61021e366004611763565b6105a7565b600c545b6040519081526020016101b2565b610227610615565b6101e361024b366004611709565b610625565b61022761025e36600461179f565b610685565b61020e610271366004611709565b6107f4565b61022761028436600461179f565b610801565b61020e610887565b42610227565b6101c361089b565b6007546001600160a01b03166101e3565b6101c36108aa565b61020e6102c6366004611709565b6108b9565b61020e6102d93660046117ba565b6108c6565b61020e6102ec366004611882565b6108d5565b61020e6102ff3660046118cb565b6108e9565b6101c3610312366004611709565b610967565b610227600c5481565b61022761032e366004611739565b610a77565b6101a6610341366004611947565b6001600160a01b03918216600090815260056020908152604080832093909416825291909152205460ff1690565b61020e61037d36600461179f565b610ca0565b60006001600160e01b031982166380ac58cd60e01b14806103b357506001600160e01b03198216635b5e139f60e01b145b806103ce57506301ffc9a760e01b6001600160e01b03198316145b92915050565b6060600080546103e39061197a565b80601f016020809104026020016040519081016040528092919081815260200182805461040f9061197a565b801561045c5780601f106104315761010080835404028352916020019161045c565b820191906000526020600020905b81548152906001019060200180831161043f57829003601f168201915b5050505050905090565b600061047182610d19565b506000908152600460205260409020546001600160a01b031690565b600061049882610625565b9050806001600160a01b0316836001600160a01b03160361050a5760405162461bcd60e51b815260206004820152602160248201527f4552433732313a20617070726f76616c20746f2063757272656e74206f776e656044820152603960f91b60648201526084015b60405180910390fd5b336001600160a01b038216148061052657506105268133610341565b6105985760405162461bcd60e51b815260206004820152603d60248201527f4552433732313a20617070726f76652063616c6c6572206973206e6f7420746f60448201527f6b656e206f776e6572206f7220617070726f76656420666f7220616c6c0000006064820152608401610501565b6105a28383610d78565b505050565b60405162461bcd60e51b815260206004820152603d60248201527f496e2074686973207265666572656e636520696d706c656d656e746174696f6e60448201527f20746f6b656e7320617265206e6f74207472616e736665727261626c650000006064820152608401610501565b600061062060085490565b905090565b6000818152600260205260408120546001600160a01b0316806103ce5760405162461bcd60e51b8152602060048201526018602482015277115490cdcc8c4e881a5b9d985b1a59081d1bdad95b88125160421b6044820152606401610501565b600d546000906001600160a01b031633146106ee5760405162461bcd60e51b8152602060048201526024808201527f4f6e6c7920706c6174666f726d2063616e2063616c6c20746869732066756e636044820152633a34b7b760e11b6064820152608401610501565b600c54600854106107365760405162461bcd60e51b815260206004820152601260248201527113585e081cdd5c1c1b1e481c995858da195960721b6044820152606401610501565b600061074160085490565b905061074d8382610de6565b6107e1816009805461075e9061197a565b80601f016020809104026020016040519081016040528092919081815260200182805461078a9061197a565b80156107d75780601f106107ac576101008083540402835291602001916107d7565b820191906000526020600020905b8154815290600101906020018083116107ba57829003601f168201915b5050505050610f71565b6103ce600880546001019055565b919050565b6107fc611004565b600c55565b60006001600160a01b03821661086b5760405162461bcd60e51b815260206004820152602960248201527f4552433732313a2061646472657373207a65726f206973206e6f7420612076616044820152683634b21037bbb732b960b91b6064820152608401610501565b506001600160a01b031660009081526003602052604090205490565b61088f611004565b610899600061105e565b565b6060600980546103e39061197a565b6060600180546103e39061197a565b6108c1611004565b600b55565b6108d13383836110b0565b5050565b6108dd611004565b60096108d18282611a02565b6108f3338361117e565b6109555760405162461bcd60e51b815260206004820152602d60248201527f4552433732313a2063616c6c6572206973206e6f7420746f6b656e206f776e6560448201526c1c881bdc88185c1c1c9bdd9959609a1b6064820152608401610501565b610961848484846111fc565b50505050565b606061097282610d19565b6000828152600660205260408120805461098b9061197a565b80601f01602080910402602001604051908101604052809291908181526020018280546109b79061197a565b8015610a045780601f106109d957610100808354040283529160200191610a04565b820191906000526020600020905b8154815290600101906020018083116109e757829003601f168201915b505050505090506000610a2260408051602081019091526000815290565b90508051600003610a34575092915050565b815115610a66578082604051602001610a4e929190611ac2565b60405160208183030381529060405292505050919050565b610a6f8461122f565b949350505050565b6000600b54421015610acb5760405162461bcd60e51b815260206004820152601860248201527f4d6574686f64206e6f7420617661696c61626c652079657400000000000000006044820152606401610501565b6001600160a01b038316610b215760405162461bcd60e51b815260206004820181905260248201527f4552433732313a206d696e7420746f20746865207a65726f20616464726573736044820152606401610501565b6000828152600260205260409020546001600160a01b0316610b9c5760405162461bcd60e51b815260206004820152602e60248201527f536861726561626c654552433732313a20746f6b656e20746f2062652073686160448201526d1c9959081b5d5cdd08195e1a5cdd60921b6064820152608401610501565b610ba582610625565b6001600160a01b0316336001600160a01b031614610c165760405162461bcd60e51b815260206004820152602860248201527f4d6574686f642063616c6c6572206d75737420626520746865206f776e65722060448201526737b3103a37b5b2b760c11b6064820152608401610501565b6000610c2183610967565b90506000610c2e60085490565b9050610c3a8582610de6565b610c448183610f71565b80856001600160a01b0316336001600160a01b03167fc9a349c2b09c746e2edebb75faaf556c1c0c89d2c196a1f988ece46ee152bd5287604051610c8a91815260200190565b60405180910390a4610a6f600880546001019055565b610ca8611004565b6001600160a01b038116610d0d5760405162461bcd60e51b815260206004820152602660248201527f4f776e61626c653a206e6577206f776e657220697320746865207a65726f206160448201526564647265737360d01b6064820152608401610501565b610d168161105e565b50565b6000818152600260205260409020546001600160a01b0316610d165760405162461bcd60e51b8152602060048201526018602482015277115490cdcc8c4e881a5b9d985b1a59081d1bdad95b88125160421b6044820152606401610501565b600081815260046020526040902080546001600160a01b0319166001600160a01b0384169081179091558190610dad82610625565b6001600160a01b03167f8c5be1e5ebec7d5bd14f71427d1e84f3dd0314c0f7b2291e5b200ac8c7c3b92560405160405180910390a45050565b6001600160a01b038216610e3c5760405162461bcd60e51b815260206004820181905260248201527f4552433732313a206d696e7420746f20746865207a65726f20616464726573736044820152606401610501565b6000818152600260205260409020546001600160a01b031615610ea15760405162461bcd60e51b815260206004820152601c60248201527f4552433732313a20746f6b656e20616c7265616479206d696e746564000000006044820152606401610501565b6000818152600260205260409020546001600160a01b031615610f065760405162461bcd60e51b815260206004820152601c60248201527f4552433732313a20746f6b656e20616c7265616479206d696e746564000000006044820152606401610501565b6001600160a01b038216600081815260036020908152604080832080546001019055848352600290915280822080546001600160a01b0319168417905551839291907fddf252ad1be2c89b69c2b068fc378daa952ba7f163c4a11628f55a4df523b3ef908290a45050565b6000828152600260205260409020546001600160a01b0316610fec5760405162461bcd60e51b815260206004820152602e60248201527f45524337323155524953746f726167653a2055524920736574206f66206e6f6e60448201526d32bc34b9ba32b73a103a37b5b2b760911b6064820152608401610501565b60008281526006602052604090206105a28282611a02565b6007546001600160a01b031633146108995760405162461bcd60e51b815260206004820181905260248201527f4f776e61626c653a2063616c6c6572206973206e6f7420746865206f776e65726044820152606401610501565b600780546001600160a01b038381166001600160a01b0319831681179093556040519116919082907f8be0079c531659141344cd1fd0a4f28419497f9722a3daafe3b4186f6b6457e090600090a35050565b816001600160a01b0316836001600160a01b0316036111115760405162461bcd60e51b815260206004820152601960248201527f4552433732313a20617070726f766520746f2063616c6c6572000000000000006044820152606401610501565b6001600160a01b03838116600081815260056020908152604080832094871680845294825291829020805460ff191686151590811790915591519182527f17307eab39ab6107e8899845ad3d59bd9653f200f220920489ca2b5937696c31910160405180910390a3505050565b60008061118a83610625565b9050806001600160a01b0316846001600160a01b031614806111d157506001600160a01b0380821660009081526005602090815260408083209388168352929052205460ff165b80610a6f5750836001600160a01b03166111ea84610466565b6001600160a01b031614949350505050565b6112078484846112a3565b61121384848484611407565b6109615760405162461bcd60e51b815260040161050190611af1565b606061123a82610d19565b600061125160408051602081019091526000815290565b90506000815111611271576040518060200160405280600081525061129c565b8061127b84611508565b60405160200161128c929190611ac2565b6040516020818303038152906040525b9392505050565b826001600160a01b03166112b682610625565b6001600160a01b0316146112dc5760405162461bcd60e51b815260040161050190611b43565b6001600160a01b03821661133e5760405162461bcd60e51b8152602060048201526024808201527f4552433732313a207472616e7366657220746f20746865207a65726f206164646044820152637265737360e01b6064820152608401610501565b826001600160a01b031661135182610625565b6001600160a01b0316146113775760405162461bcd60e51b815260040161050190611b43565b600081815260046020908152604080832080546001600160a01b03199081169091556001600160a01b0387811680865260038552838620805460001901905590871680865283862080546001019055868652600290945282852080549092168417909155905184937fddf252ad1be2c89b69c2b068fc378daa952ba7f163c4a11628f55a4df523b3ef91a4505050565b60006001600160a01b0384163b156114fd57604051630a85bd0160e11b81526001600160a01b0385169063150b7a029061144b903390899088908890600401611b88565b6020604051808303816000875af1925050508015611486575060408051601f3d908101601f1916820190925261148391810190611bc5565b60015b6114e3573d8080156114b4576040519150601f19603f3d011682016040523d82523d6000602084013e6114b9565b606091505b5080516000036114db5760405162461bcd60e51b815260040161050190611af1565b805181602001fd5b6001600160e01b031916630a85bd0160e11b149050610a6f565b506001949350505050565b606060006115158361159b565b600101905060008167ffffffffffffffff811115611535576115356117f6565b6040519080825280601f01601f19166020018201604052801561155f576020820181803683370190505b5090508181016020015b600019016f181899199a1a9b1b9c1cb0b131b232b360811b600a86061a8153600a850494508461156957509392505050565b60008072184f03e93ff9f4daa797ed6e38ed64bf6a1f0160401b83106115da5772184f03e93ff9f4daa797ed6e38ed64bf6a1f0160401b830492506040015b6d04ee2d6d415b85acef81000000008310611606576d04ee2d6d415b85acef8100000000830492506020015b662386f26fc10000831061162457662386f26fc10000830492506010015b6305f5e100831061163c576305f5e100830492506008015b612710831061165057612710830492506004015b60648310611662576064830492506002015b600a83106103ce5760010192915050565b6001600160e01b031981168114610d1657600080fd5b60006020828403121561169b57600080fd5b813561129c81611673565b60005b838110156116c15781810151838201526020016116a9565b50506000910152565b600081518084526116e28160208601602086016116a6565b601f01601f19169290920160200192915050565b60208152600061129c60208301846116ca565b60006020828403121561171b57600080fd5b5035919050565b80356001600160a01b03811681146107ef57600080fd5b6000806040838503121561174c57600080fd5b61175583611722565b946020939093013593505050565b60008060006060848603121561177857600080fd5b61178184611722565b925061178f60208501611722565b9150604084013590509250925092565b6000602082840312156117b157600080fd5b61129c82611722565b600080604083850312156117cd57600080fd5b6117d683611722565b9150602083013580151581146117eb57600080fd5b809150509250929050565b634e487b7160e01b600052604160045260246000fd5b600067ffffffffffffffff80841115611827576118276117f6565b604051601f8501601f19908116603f0116810190828211818310171561184f5761184f6117f6565b8160405280935085815286868601111561186857600080fd5b858560208301376000602087830101525050509392505050565b60006020828403121561189457600080fd5b813567ffffffffffffffff8111156118ab57600080fd5b8201601f810184136118bc57600080fd5b610a6f8482356020840161180c565b600080600080608085870312156118e157600080fd5b6118ea85611722565b93506118f860208601611722565b925060408501359150606085013567ffffffffffffffff81111561191b57600080fd5b8501601f8101871361192c57600080fd5b61193b8782356020840161180c565b91505092959194509250565b6000806040838503121561195a57600080fd5b61196383611722565b915061197160208401611722565b90509250929050565b600181811c9082168061198e57607f821691505b6020821081036119ae57634e487b7160e01b600052602260045260246000fd5b50919050565b601f8211156105a257600081815260208120601f850160051c810160208610156119db5750805b601f850160051c820191505b818110156119fa578281556001016119e7565b505050505050565b815167ffffffffffffffff811115611a1c57611a1c6117f6565b611a3081611a2a845461197a565b846119b4565b602080601f831160018114611a655760008415611a4d5750858301515b600019600386901b1c1916600185901b1785556119fa565b600085815260208120601f198616915b82811015611a9457888601518255948401946001909101908401611a75565b5085821015611ab25787850151600019600388901b60f8161c191681555b5050505050600190811b01905550565b60008351611ad48184602088016116a6565b835190830190611ae88183602088016116a6565b01949350505050565b60208082526032908201527f4552433732313a207472616e7366657220746f206e6f6e20455243373231526560408201527131b2b4bb32b91034b6b83632b6b2b73a32b960711b606082015260800190565b60208082526025908201527f4552433732313a207472616e736665722066726f6d20696e636f72726563742060408201526437bbb732b960d91b606082015260800190565b6001600160a01b0385811682528416602082015260408101839052608060608201819052600090611bbb908301846116ca565b9695505050505050565b600060208284031215611bd757600080fd5b815161129c8161167356fea26469706673582212201babf93d3ed81c7b677c67e8ff8110f2c74ffa85ff435298ecf9e0f0c086346e64736f6c63430008110033",
  "linkReferences": {},
  "deployedLinkReferences": {}
}